:0200000480007A
:10000000930010001301200093812000138241000F
:10001000B382200033835200B30352006384510043
:100020009301F0FF638451009301E0FF638C51045E
:100030009301D0FF13000000130000001300000024
:100040001300000013000000130000001300000064
:100050001300000013000000130000001300000054
:100060001300000013000000130000001300000044
:100070001300000013000000130000001300000034
:100080001300000013000000130000001300000024
:100090001300000013000000130000001300000014
:1000A0001300000013000000130000001300000004
:1000B00013000000130000001300000013000000F4
:1000C00013000000130000001300000013000000E4
:1000D00013000000930000001301000093010000D2
:1000E00013020000930200001303000093030000BA
:1000F000E30800F0B34031001300000013000000DB
:1001000013000000130000001300000013000000A3
:100110001300000013000000130000001300000093
:100120001300000013000000130000001300000083
:100130001300000013000000130000001300000073
:1001400013000000130000001300000093001000D3
:10015000130120009301300013024000930250006D
:100160001303600093037000130480009304900055
:1001700013050001930510011306200193063001B9
:1001800013074001930750011308600193087001A1
:100190001309800193099001130A0002930A1002C7
:1001A000130B2002930B3002130C4002930C5002ED
:1001B000130D6002930D7002130E8002930E9002D5
:1001C000130F0003930F100313000000930010009F
:1001D00013012000930130001302400093025000ED
:1001E00013036000930370001304800093049000D5
:1001F0001305000193051001130620019306300139
:100200001307400193075001130860019308700120
:100210001309800193099001130A0002930A100246
:10022000130B2002930B3002130C4002930C50026C
:10023000130D6002930D7002130E8002930E900254
:10024000130F0003930F100313000000930010001E
:10025000130120009301300013024000930250006C
:100260001303600093037000130480009304900054
:1002700013050001930510011306200193063001B8
:1002800013074001930750011308600193087001A0
:100290001309800193099001130A0002930A1002C6
:1002A000130B2002930B3002130C4002930C5002EC
:1002B000130D6002930D7002130E8002930E9002D4
:1002C000130F0003930F100313000000930010009E
:1002D00013012000930130001302400093025000EC
:1002E00013036000930370001304800093049000D4
:1002F0001305000193051001130620019306300138
:10030000130740019307500113086001930870011F
:100310001309800193099001130A0002930A100245
:10032000130B2002930B3002130C4002930C50026B
:10033000130D6002930D7002130E8002930E900253
:08034000130F0003930F1003DB
:040000058000000077
:00000001FF
