:0200000480007A
:100000009700000093804007371100001301018022
:10001000B72100009381818073905030731041307C
:100020007390013013000000130000001300000063
:100030001300000013000000130000001300000074
:100040001300000013000000130000001300000064
:100050001300000013000000130000001300000054
:100060001300000013000000130000001300000044
:100070001300000013000000130000001300000034
:100080001300000013000000130000001300000024
:100090001300000013000000130000001300000014
:1000A0001300000013000000130000001300000004
:1000B00013000000130000001300000013000000F4
:1000C00013000000130000001300000013000000E4
:1000D00013000000130000001300000013000000D4
:1000E00013000000130000001300000013000000C4
:1000F00013000000130000001300000013000000B4
:1001000013000000130000001300000013000000A3
:0401100013000000D8
:040000058000000077
:00000001FF
